:020000040800F2
:10000000284E0020255D0008790200087B020008C8
:100010007F02000883020008870200080000000039
:100020000000000000000000000000008B0200083B
:100030008D020008000000008F02000891020008F5
:100040003F5D00083F5D00083F5D00083F5D000820
:100050003F5D00083F5D00083F5D00083F5D000810
:100060003F5D00083F5D00083F5D00083F5D000800
:100070003F5D00083F5D00083F5D00083F5D0008F0
:100080003F5D00083F5D00083F5D00083F5D0008E0
:10009000910400083F5D00083F5D00083F5D0008D7
:1000A0003F5D00083F5D00083F5D00083F5D0008C0
:1000B0004F0400083F5D00083F5D00083F5D0008F9
:1000C0003F5D00083F5D00083F5D00083F5D0008A0
:1000D0003F5D000855050008930200083F5D0008D9
:1000E0003F5D00083F5D00083F5D000800F002F83A
:1000F00000F0B2F80AA090E8000C82448344AAF110
:100100000107DA4501D100F0A7F8AFF2090EBAE80D
:100110000F0013F0010F18BFFB1A43F0010318473B
:1001200080E30000A0E300000A444FF0000C10F848
:10013000013B13F0070408BF10F8014B1D1108BF65
:1001400010F8015B641E05D010F8016B641E01F805
:10015000016BF9D113F0080F1EBF10F8014BAD1C55
:100160000C1B09D16D1E58BF01F801CBFAD505E073
:1001700014F8016B01F8016B6D1EF9D59142D6D3CD
:10018000704700000023002400250026103A28BFF5
:1001900078C1FBD8520728BF30C148BF0B607047F9
:1001A0006E2906F06281702905F07087662908F0D3
:1001B0000481652908F00181672908F0FE80612922
:1001C00008F0FD8003681B0A28BF41F080016929FF
:1001D00005F04686642905F04386752905F04086BA
:1001E0006F2905F0FB86782905F03C87E92906F0A0
:1001F0001185E42906F00E85F52906F00B85EF2917
:1002000005F0F886F82905F03B870368DB0928BF6D
:1002100041F08001632906F0C984732906F0CE8479
:10022000E32906F0EB84F32906F0F0840020704700
:100230001FB508F036F806F07BFD04000020002111
:1002400007F0EEFA401C60600020002107F0D2FAAF
:10025000E0601FBD10B510BD06F08AFE1146FFF725
:10026000E7FF00F08FFA06F0A8FE03B4FFF7F2FFF5
:1002700003BC02F00BFF0000704700BFFEE700BFA9
:10028000FEE700BFFEE700BFFEE77047704770471C
:10029000704710B500BF0821F94803F02AFC48B1A7
:1002A000F8480088C4B24FF0010240F22441F448FB
:1002B00003F04DFB40F22551F14803F01AFC88B1E0
:1002C000F0490988CAB2F049087800F10101EE4B03
:1002D0001970EE490A544FF0010240F22441E848F7
:1002E00003F035FB1021E64803F003FC98B3E54822
:1002F0000088C4B24FF0000240F22441E04803F00D
:1003000026FB1522E2A1E14805F0B9FF38B901202A
:10031000E54908706421DD4803F028FA93E01522CE
:10032000E2A1DA4805F0ABFF38B90220DE490870D7
:100330006421D64803F01AFA85E01522E1A1D348DA
:1003400005F09DFF40B90320D74908706421CF48CC
:1003500003F00CFA77E079E01522E0A1CB4805F034
:100360008EFF38B90420D04908706421C74803F0D3
:10037000FDF968E01122DFA1C44805F080FF38B91B
:100380000520C94908706421C04803F0EFF95AE01C
:100390000F22DDA1BD4805F072FF38B90620C24921
:1003A00008706421B94803F0E1F94CE01022DAA1A9
:1003B000B64805F064FF38B90720BB4908706421CE
:1003C000B24803F0D3F93EE00622D8A1AF4805F0C9
:1003D00056FF18B90920B449087034E00822D5A1A5
:1003E000AA4805F04CFF18B90A20AF4908702AE066
:1003F0000822D3A1A54805F042FF18B90B20AA494D
:10040000087020E00622D1A1A04805F038FF18B9F5
:100410000C20A549087016E00622CEA19B4805F0E5
:100420002EFF18B90D20A04908700CE0CB4805F04C
:100430009BFCCBA005F0A4FC08209B49087064211C
:10044000924803F093F900208F49087010BD10B551
:100450000121880705F06DFBC8B10121880705F06F
:1004600079FBC0490C78611CBE4A1170C4EBC40210
:10047000BD4909680831501802F00DFFB9480078ED
:10048000BA490978884202DB0020B649087010BDDD
:1004900010B586B001AA0021B54803F09BFE9DF877
:1004A0000F00302805D0B3484068406A029988425E
:1004B00009D09DF80F00302846D0AE484068006A49
:1004C0000199884240D10020AA49086034E0012007
:1004D000A8490872002415E0A64840681C30A549C8
:1004E0000968C1EBC10100EB81000F30015D0DF126
:1004F0000F00005D814203D000209E4908720CE08D
:10050000601CC4B29B4840681C309A490968C1EB22
:10051000C10150F82100A042DED800BF9548007A02
:10052000012804D193494872002088720BE0914859
:100530000068401C8F4908608E4800688D494968F2
:1005400089698842C3D303E001208A4948728872CE
:1005500006B010BD10B500208649487340F2255101
:10056000854803F0C6FAF0B38248007B68B9834837
:10057000008850B97F48007D401CC0B27D49087595
:10058000032801DB0120487510BD7A48007B58B96B
:100590007A480088702807D10120764908727420B3
:1005A000086000200873EFE774490988CAB27149EE
:1005B000087B00F101016F4B197371490A544FF028
:1005C000000408E06B48407B6D49095D08446949B7
:1005D0004873601CC4B26748007B401EA042F1DC37
:1005E0006448417B00E049E0007B401E644A105CA7
:1005F000814243D15F48007B03283FDD00205D49F5
:10060000086033E001205B490872002415E0594876
:100610000069001D5749096801EB810100EB810069
:10062000001D005D5649095D884204D000205149F3
:10063000087208730CE0601CC4B24E480069001DCB
:100640004C49096801EB810150F82100A042DED835
:1006500000BF4848007A012803D1002045490873AB
:100660000BE044480068401C42490860414800686B
:100670004049096909688842C4D300BF00BF83E7C5
:10068000004400400444004000000020C046002018
:1006900041542B49534F31353736352D345354445B
:1006A0005F3530304B0000000100002041542B49E1
:1006B000534F31353736352D344558545F3530304A
:1006C0004B00000041542B49534F31353736352DFF
:1006D000345354445F3235304B00000041542B49B1
:1006E000534F31353736352D344558545F32353018
:1006F0004B00000041542B49534F31343233302DDD
:10070000344144445200000041542B49534F31348A
:100710003233302D34484C0041542B49534F39313A
:1007200034312D32414444520000000041542B44E6
:100730005443000041542B30374454430000000020
:1007400041542B30414454430000000041542B538A
:100750004453000041542B56494E0000B4BC0008DD
:100760000D0A0000020000201C00002018000020DC
:100770000064004024470020003801400438014054
:100780006247002002F079FD42E000202149087311
:10079000087221480078092832D2DFE800F02F05DE
:1007A0000B11171D23293000002204211B4800F0E3
:1007B000F7FB2CE004221146184800F0F1FB26E07C
:1007C00000220821154800F0EBFB20E0042208215C
:1007D000124800F0E5FB1AE042F6A001104801F0D3
:1007E000ADFD14E042F6A0010D4801F0A7FD0EE0BA
:1007F00042F6A0010B4802F0CFF808E007E006E05F
:10080000094805F0B1FA00200349087000BF00BF95
:10081000BBE7000024470020010000204C0000201E
:10082000881C0020A4310020E6BC000810B5034657
:100830000C46002111E0585C302808DB585C392850
:1008400002DD585C412802DB585C5A2801DD01209A
:1008500010BD585C5054481CC1B2A142EBDB0020D3
:10086000F6E7024610783038092810DC5078303826
:1008700009280CDC90783038092808DC10783038EA
:1008800005D45078303802D49078303803D5012020
:100890000870FF20704700200870107830386423FB
:1008A00058435378303B03EB830300EB43009378CA
:1008B00018443038C0B2EDE72DE9F04F89B0074653
:1008C0000C469146142102A805F01FFD07A9B81D8A
:1008D000FFF7C7FF054604EB45100078C8BB0422AC
:1008E000FFA107F10A0005F0CAFCC8B9FE4800687C
:1008F000401EFD49086004EB4510807A012806D1AE
:1009000008460068401C32D1FF2008602FE0F648FE
:100910000068401C2BD14FF6FF70F349086026E0B9
:100920000222F2A107F10A0005F0A9FCD8B9EE48AD
:100930000068401CEC49086004EB4510807A0128EF
:1009400008D108460068B0F5807F10D1002008600B
:100950000DE071E0E4480068B0F5803F07D1002069
:10096000E149086003E0012009B0BDE8F08F0026EE
:100970000DE0DD4800EB060898F8001004EB451088
:10098000807A801B401E09F80010701CC6B204EB70
:100990004510807AB042ECDC04EB4511486805F064
:1009A000EFF904EB4511C86805F04AFC401E04EB62
:1009B0004511C968085C662816D1CB48006807F065
:1009C00061FB834604EB451001695846884782461F
:1009D00007F0C4F9CDE9000104EB4511C868DDE971
:1009E000002305F0CDF913E0BF48006807F04AFB8B
:1009F000019004EB4510016901988847834607F090
:100A000009FB824604EB4511C868514605F0B8F968
:100A100004EB4511486905F0B3F9B5A005F0B0F94C
:100A2000B44805F0A1F904EB4511C86905F0A8F92F
:100A3000B1A005F0A5F948E0002606E006F10A009D
:100A4000385C02A98855701CC6B204EB4510C07A08
:100A5000B042F3DC04EB451007A9826902A8904775
:100A6000A14908609DF81C00012801D102207BE704
:100A700000260DE09C4800EB060898F8001004EBF7
:100A80004510807A801B401E09F80010701CC6B209
:100A900004EB4510807AB042ECDC04EB4511486869
:100AA00005F06EF907F10A0005F06AF993A005F068
:100AB00067F9904805F058F9914901EB4511C8696B
:100AC00005F05EF98CA005F05BF900204CE7F0B56D
:100AD000024600232CE0002026E00027894E76689D
:100AE00041F2840C664401EB030C0CEB8C0C06EB1E
:100AF0008C060B364FF0020C0CEB400C06F80C7019
:100B0000804E766841F2840C664401EB030C0CEBDA
:100B10008C0C06EB8C060B364FF0030C0CEB400CE8
:100B200006F80C70461CF0B20328D6DB5E1CF3B24C
:100B3000042BD0DB1678032E48DA1678022707EB51
:100B40004606704F7F6841F2840C674401EB810CCC
:100B500007EB8C07FE7217786A4E766841F2840CB8
:100B6000664401EB810C06EB8C067773002029E0CC
:100B7000012606EB4006975D624E766841F2840CD2
:100B8000664401EB810C06EB8C060B364FF0030C30
:100B90000CEB400C06F80C70022606EB4006975D45
:100BA000584E766841F2840C664401EB810C06EBEA
:100BB0008C060B364FF0040C0CEB400C06F80C7056
:100BC000461CF0B216788642D2DCADE010264D4FBE
:100BD0007F6841F2840C674401EB810C07EB8C07C2
:100BE000FE721678022707EB4606F7B2454E766886
:100BF00041F2840C664401EB810C06EB8C063773E2
:100C00004327404E766841F2840C664401EB810C28
:100C100006EB8C06777317783A4E766841F2840CAF
:100C2000664401EB810C06EB8C06B773002029E0CB
:100C3000012606EB4006975D324E766841F2840C41
:100C4000664401EB810C06EB8C060B364FF0040C6E
:100C50000CEB400C06F80C70022606EB4006975D84
:100C6000284E766841F2840C664401EB810C06EB59
:100C70008C060B364FF0050C0CEB400C06F80C7094
:100C8000461CF0B20228D3DB1678B61E7600072782
:100C900096FBF7FC07FB1C660EB9002400E001245C
:100CA0000025002037E0002330E06E1D12F806C05A
:100CB000144E766841F2840737444E1C064406EB16
:100CC000860607EB86060B365F1C06F807C06E1C0F
:100CD000F7B23D461678B61EB7EB460F14DB17E0A9
:100CE000444F574E000000000800002055500000FF
:100CF0002C20000063DC00080D0A00002C0000001E
:100D0000C4830008244700205E1CF3B2072BCCDB11
:100D100000BF461CF0B21678B61E7600072796FB79
:100D2000F7F626448642BEDCF0BD70B505460E4699
:100D3000144624B1012C07D0022C0FD109E0314612
:100D40002846FFF7C4FE09E03146284601F068FD59
:100D500004E03146284602F080F800BF00BF70BDB5
:100D600030B502460C46002148E0002342E0022054
:100D700000FB0130105C302818DB022000FB013042
:100D8000105C392812DC3BB912F811003038F0251C
:100D900005EA001060542BE0605C012505EB41057D
:100DA000555D05F00F052843605421E0022000FB4B
:100DB0000130105C412819DB022000FB0130105C7F
:100DC000462813DC3BB912F811003738F02505EA44
:100DD000001060540CE0605C012505EB4105555D99
:100DE000ED1F05F00F052843605401E0022030BDDF
:100DF000581CC3B2022BBADB481CC1B20229B4DBB7
:100E00000020F4E72DE9F04106460D46152128465D
:100E100002F0ACFC707830383178303901EB810168
:100E200000EB410000F0FF08B8F10A0F02DD0120DD
:100E3000BDE8F08185F800800024ACE004EB4401BB
:100E4000032202EB410188190122FAA105F017FAE9
:100E5000B0B9012202EB4402511904EB440204230D
:100E600003EB42029019FFF77BFF0746012000EBDE
:100E70004400285C402801DC022F2DD10220D7E756
:100E800004EB4401092202EB4101EB4A88180122DC
:100E9000EAA105F0F4F900BB012202EB440251196A
:100EA00004EB4402042303EB42029019FFF758FFBE
:100EB0000746012000EB4400285C402801DC022F9B
:100EC00001D10220B4E7012000EB4400285C40304F
:100ED000012101EB440168545BE004EB4401092269
:100EE00002EB4101D44A88180122D5A105F0C7F9C7
:100EF00000BB012202EB4402511904EB440204231B
:100F000003EB42029019FFF72BFF0746012000EB8D
:100F10004400285C402801DC022F01D1022087E731
:100F2000012000EB4400285C8030012101EB4401EA
:100F300068542EE004EB4401092202EB4101BE4A51
:100F400088180122BFA105F09AF900BB012202EB2B
:100F50004402511904EB4402042303EB42029019AA
:100F6000FFF7FEFE0746012000EB4400285C402806
:100F700001DC022F01D102205AE7012000EB4400DE
:100F8000285CC030012101EB4401685401E00220DB
:100F90004EE7601CC4B24445FFF650AF002047E75F
:100FA0002DE9F0479CB00446894617464FF00008EB
:100FB000A54903C9CDE90101A448446002F0D0F974
:100FC000484602F0F8F937B9E388A288618820889A
:100FD00002F079FA04E004F108000FC802F013FAF5
:100FE00000209A4948729A4890F80080BEE29848DA
:100FF000007801280AD1B8F1010F00D0C6E2954867
:1010000004F0B2FE082092490870EDE190480078A3
:1010100002280AD1B8F1020F00D0B7E28E4804F0DE
:10102000A3FE08208A490870DEE189480078032879
:101030000AD1B8F1030F00D0A8E2884804F094FE6A
:10104000082083490870CFE18148007804280AD13C
:10105000B8F1040F00D099E2814804F085FE082021
:101060007B490870C0E17A480078092807D07848A1
:1010700000780A2803D0764800780B2874D1744889
:101080000078092801D100250AE0714800780A2873
:1010900001D1012504E06E4800780B2800D102251B
:1010A00001A911F81510644A88186E49FFF7AAFEC5
:1010B000012802D002280CD107E06B4804F054FE4E
:1010C000AFF2CC3004F05CFE48E0684804F04CFE1F
:1010D00044E001A800EB4500417800226148FFF799
:1010E00024FE5B480078092803D1614804F03CFEE7
:1010F0000EE0574800780A2803D15E4804F034FE19
:1011000006E0534800780B2802D15B4804F02CFE1F
:10111000642103A802F02AFB5248007800EB40004B
:10112000420001A810F81500C01C434BC11803A8C9
:1011300005F012F903A804F023FEAFF2444004F0D6
:101140001FFE1521474802F011FB642103A802F09D
:101150000DFB6421384802F009FB00BF00BF0820E6
:101160003B49087040E1FFE7394800780C285FD11F
:1011700069463148801DFFF774FB06469DF8000064
:10118000012812D1384804F0EFFDAFF2944004F08A
:10119000F7FD08202E4908706421274802F0E6FA7E
:1011A0000221364802F0E2FAE0E135480078B04228
:1011B0001FD0002515E0334800EB4610007A00EB05
:1011C000800041F28401214401EB80000B302D4965
:1011D00001EB4611497A2944405C2B490860681CA0
:1011E000C5B2284800EB4610807AA842E3DC2448C8
:1011F0000670224A23491048FFF75EFB00909DF8D5
:101200000000012846D1184804F0AEFD1F4804F044
:10121000ABFD1FA004F0B4FD08200D490870642147
:10122000054802F0A3FA0221144802F09FFA9DE15A
:101230007AE0000050000000C0460020430000009B
:101240004200000055000000A4960008244700203A
:1012500001000020E0BD000817DD000849DD00089E
:101260007BDD00084D470020B4BC000818BD000815
:101270004ABD00087CBD0008AEBD00080C0000207F
:1012800004000020C48300080800002076BE000887
:10129000220D0A009DF8000002281BD1FD4804F031
:1012A00063FDFD4804F060FDFC4901EB4611C8698F
:1012B00004F066FDAFF2C05004F062FD0820F8496A
:1012C00008706421F74802F051FA0221F64802F052
:1012D0004DFA4BE1002515E0F348415DEF4800EB86
:1012E0004610007A00EB800041F28402224402EBB7
:1012F00080000B30E94A02EB4612527A2A448154AC
:10130000681CC5B2E54800EB4610807AA842E3DCD1
:101310000820E34908706421E24802F027FA02211C
:10132000E14802F023FA5FE0DD4800780D285BD148
:10133000DE4A1121DB48C01DFFF778FA01280ED1E3
:10134000DB4804F011FDAFF2506004F019FD0820F5
:10135000D34908706421D34802F008FA06E1002559
:101360000AE0D248425D691D41F28400204400F643
:101370006B104254681CC5B2032DF2DB00250BE054
:10138000CA49E81C0A5C691C41F28400204400F64A
:101390007F104254681CC5B2072DF1DB00250CE01C
:1013A000C24905F10A000A5C691C41F2840020442C
:1013B00000F693104254681CC5B2072DF0DBBD48FF
:1013C00004F0D2FCB94804F0DBFCAFF2D46004F0C6
:1013D000D7FC0820B24908706421B24802F0C6F96F
:1013E0001521B54802F0C2F9B448407A01285CD111
:1013F000B248807AE8BBB1480068C0EBC00104F194
:101400001C0000EB8100007E00EB800041F28401B3
:10141000214401EB8000C07A102812D1A74800684F
:10142000C0EBC00104F11C0000EB8100007E00EB6A
:10143000800041F28401214401EB8000007B9F4940
:10144000C8729E480068C0EBC00104F11C0000EBAC
:101450008100007E00EB800041F28401214401EB19
:101460008000077295480068C0EBC00204F11C00C0
:1014700000E01AE000EB8200007E00EB800041F209
:101480008402224402EB80018D4802F0A0FD8D49C8
:10149000087000BF8B480178894802F03EFE0128A1
:1014A000F8D10020854948725FE08448407A0128DD
:1014B0005BD18248807A012857D18048C07A401C8D
:1014C000072190FBF1F201FB1200002808DD7B48A8
:1014D000C07A401C90FBF1F0401C00F0FF0A07E0CE
:1014E0007648C07A401C072190FBF1F000F0FF0A1B
:1014F000012534E0012001F081FD70480068C0EB57
:10150000C00104F11C0000EB8100007E284400EBC8
:10151000800041F28401214401EB8000077267489A
:101520000068C0EBC00204F11C0000EB8200007EEA
:10153000284400EB800041F28402224402EB800147
:101540005F4802F044FD5F49087000BF5D480178C4
:101550005B4802F0E2FD0128F8D1681CC5B2554590
:10156000C8DB002055498872487200BF4C4800789B
:1015700060B14B480078052808D049480078062813
:1015800004D04748007807287FF431AD00BF1CB075
:10159000BDE8F08770B50446204606F03BFD00F03C
:1015A0007F05284606F056FD70BD70B505460C4611
:1015B000022245A1284604F062FE18B900202070DE
:1015C000802070BD022241A1284604F058FE10B9C7
:1015D00000202070F5E7012020700020F1E770B5B1
:1015E00005460C4602223AA1284604F048FE18B9E6
:1015F00000202070012070BD022236A1284604F090
:101600003EFE10B900202070F5E701202070002078
:10161000F1E770B505460C4602222DA1284604F0DC
:101620002EFE18B900202070022070BD022229A1D0
:10163000284604F024FE10B900202070F5E70120B0
:1016400020700020F1E770B505460C46022220A16B
:10165000284604F014FE18B900202070042070BD44
:1016600002221CA1284604F00AFE10B900202070B6
:10167000F5E7012020700020F1E770B505460C4623
:10168000022215A1284604F0FAFD38BB0020207084
:10169000102070BDB4BC000863DC0008C4830008DF
:1016A00001000020C04600200C0000203C47002024
:1016B00095DC0008E5DC00084D47002024470020A9
:1016C00000640040200000204F4E00004F46000004
:1016D000D6A70000B2BB0000CEB40000FFE7022294
:1016E000F9A1284604F0CBFD10B90020207070BD90
:1016F000012020700020FAE770B505460C46022252
:10170000AFF22C01284604F0BAFD18B90020207071
:10171000202070BD0222ECA1284604F0B0FD10B9D3
:1017200000202070F5E7012020700020F1E770B55F
:1017300005460C460222AFF26001284604F09FFDE8
:1017400018B900202070402070BD0222DEA128467A
:1017500004F095FD10B900202070F5E701202070FD
:101760000020F1E770B505460C460222AFF2A00159
:10177000284604F084FD18B900202070082070BDB0
:101780000222AFF2B001284604F079FD10B9002022
:101790002070F4E7012020700020F0E770B50546C6
:1017A0000C460222AFF2D801284604F068FD18B9B1
:1017B00000202070202070BD0222AFF2E8012846F0
:1017C00004F05DFD10B900202070F4E701202070C6
:1017D0000020F0E770B505460C460222AFF210116A
:1017E000284604F04CFD18B900202070402070BD40
:1017F0000222AFF22011284604F041FD10B900206A
:101800002070F4E7012020700020F0E770B5054655
:101810000C460222AFF24811284604F030FD18B9F8
:1018200000202070802070BD0222AFF2581128469F
:1018300004F025FD10B900202070F4E7012020708D
:101840000020F0E770B505460C460222AFF2781191
:10185000284604F014FD18B900202070012070BD46
:10186000022299A1284604F00AFD10B90020207038
:10187000F5E7012020700020F1E770B505460C4621
:101880000222AFF2AC11284604F0F9FC18B900208E
:101890002070022070BD02228BA1284604F0EFFCCC
:1018A00010B900202070F5E7012020700020F1E73A
:1018B00070B505460C460222AFF2E411284604F04A
:1018C000DEFC18B900202070082070BD02227EA125
:1018D000284604F0D4FC10B900202070F5E7012060
:1018E00020700020F1E770B505460C460222AFF2E9
:1018F0001821284604F0C3FC18B90020207080206D
:1019000070BD022270A1284604F0B9FC10B9002075
:101910002070F5E7012020700020F1E7F8B50546BA
:101920000C460122AFF2F461284604F0A8FC58B935
:101930006946681CFFF714FA20700098C0B240286E
:1019400046DD0120207043E00122AFF210712846ED
:1019500004F095FC70B96946681CFFF701FA207025
:101960000098C0B2402801DD01202070009840306E
:1019700000902DE00122AFF23871284604F07FFC80
:1019800070B96946681CFFF7EBF920700098C0B287
:10199000402801DD0120207000988030009017E081
:1019A0000122AFF26071284604F069FC70B9694603
:1019B000681CFFF7D5F920700098C0B2402801DDFF
:1019C000012020700098C030009001E001202070BC
:1019D0002078022801D1012020700098C6B236027A
:1019E0000098000A00900098304300900098F8BDDD
:1019F00070B505460C46082234A1284604F03FFC89
:101A000018B900202070042070BD082232A1284699
:101A100004F035FC18B9002020700820F4E70822F3
:101A200030A1284604F02BFC18B9002020701020AB
:101A3000EAE702222EA1284604F021FC18B9002072
:101A400020700120E0E702222AA1284604F017FCBA
:101A500018B9002020700220D6E7022226A12846CD
:101A600004F00DFC10B900202070CDE7012020709B
:101A70000020C9E770B504462049204606F04AFB1D
:101A800005461F4906F004FA70BD10B504461D490D
:101A9000204606F01DFC10BD70B5044617492046CF
:101AA00006F038FB06464FF0864106F0F1F9054690
:101AB000124906F00DFC70BD10B5044612492046CF
:101AC00006F028FB10BD00004F4B00004F4C2D448A
:101AD00072697665000000004F4C2D4661756C748C
:101AE00000000000434C2D4661756C74000000003E
:101AF0004F4C0000434C00002D2D00000000C84258
:101B000000007F43000020420000404010B5044622
:101B10004FF08141204606F0BBF910BD704770B50B
:101B200004464FF08041204606F0B2F905464FF0DA
:101B3000854106F0CDFB70BD10B50446FB4920463B
:101B400006F0A6F910BD2DE9F0478246504606F092
:101B500005F98046F64AF74B06F002F806460022E1
:101B6000F54B05F0A5FE044605F070FEBDE8F087D4
:101B7000704710B50446F149204606F0CBFA10BD77
:101B80002DE9F0478246504606F0E8F88046EC4AD8
:101B9000EC4B05F0E5FF06460022EB4B05F088FE16
:101BA000044605F053FEBDE8F08710B50446E3494E
:101BB000204606F0AFFA10BD70B504464FF08041E4
:101BC000204606F0A7FA0546E04906F061F970BD27
:101BD00070B504464FF08641204606F067FA08D2F9
:101BE000DB49204606F096FA0546DA4906F050F938
:101BF00070BD4FF08741204606F05FFB0546D64991
:101C000006F088FAF4E710B504464FF08641204606
:101C100006F05EFB10BD70B50446C849204606F0CC
:101C200037F90546CD4906F053FB70BD70B5044643
:101C30004FF08241204606F06DFA0546C34906F092
:101C400027F970BD2DE9F0478246504606F086F828
:101C50008046C34AC34B05F083FF06460022BA4BB9
:101C600005F026FE044605F0F1FDBDE8F08770B5ED
:101C70000446BD49204606F04DFA0546B34906F034
:101C800007F970BD10B50446B849204606F000F9C2
:101C900010BD10B504464FF08E41204606F006FAFE
:101CA00001D2204610BD4FF08F41204606F010FBB8
:101CB000F8E72DE9F0478246504606F04FF8804697
:101CC000AB4AAC4B05F04CFF064600229E4B05F09C
:101CD000EFFD044605F0BAFDBDE8F0872DE9F047B9
:101CE0008246504606F03AF880460022A24B05F0A4
:101CF00037FF06460022944B05F0DAFD044605F056
:101D0000A5FDBDE8F08710B504469C49204606F0C5
:101D1000DFFA10BD70B505460C46042298A128468E
:101D200004F0ADFA18B900202070082070BD03221D
:101D300095A1284604F0A3FA18B9002020700420C9
:101D4000F4E7032291A1284604F099FA18B900207B
:101D500020700220EAE703228DA1284604F08FFAC2
:101D600018B9002020700120E0E70222AFF27821AC
:101D7000284604F084FA10B900202070D6E701202C
:101D800020700020D2E770B505460C46052281A1DF
:101D9000284604F074FA18B900202070012070BDA4
:101DA00005227EA1284604F06AFA18B900202070A6
:101DB0000220F4E705227BA1284604F060FA18B956
:101DC000002020700420EAE7052278A1284604F0CC
:101DD00056FA18B9002020700820E0E7052275A106
:101DE000284604F04CFA18B9002020701020D6E7DD
:101DF000052272A1284604F042FA18B9002020708A
:101E00002020CCE705226FA1284604F038FA18B943
:101E1000002020704020C2E705226CA1284604F073
:101E20002EFA18B9002020708020B8E70222AFF205
:101E30003831284604F023FA10B900202070AEE7AC
:101E4000012020700020AAE770B505460C4612223A
:101E500060A1284604F013FA18B900202070092068
:101E600070BD0E2260A1284604F009FA18B90020BE
:101E700020700320F4E70E225FA1284604F0FFF94A
:101E800018B9002020700720EAE70E225EA128463C
:101E900004F0F5F918B9002020700B20E0E70D22BE
:101EA0005DA1284604F0EBF918B9002020700C2041
:101EB000D6E70C225CA1284604F0E1F918B900200D
:101EC00020700820CCE706225BA1284604F0D7F951
:101ED00018B9002020700520C2E7042258A1284626
:101EE00004F0CDF918B9002020700420B8E70422CE
:101EF00055A1284604F0C3F918B900202070062027
:101F0000AEE7042252A1284604F0B9F918B900201E
:101F100020700A20A4E703224FA1284604F0AFF95D
:101F200018B90020207002209AE797E00000C8420C
:101F30007B14AE47E17AF43F00E06F40000020419F
:101F4000EC51B81E4539B440E0FFEF4000FF7F4739
:101F50000000FE450000FE42000080C2000020425A
:101F600052B81E85EB61504000C8C8460000484387
:101F7000A4703D0AD7FF7F408099A9400000FA4233
:101F800044494147000000004F464600444E53007C
:101F90005550530042312D533100000042312D5332
:101FA0003200000042312D533300000042312D53E6
:101FB0003400000042322D533100000042322D53D4
:101FC0003200000042322D533300000042322D53C4
:101FD00034000000454F4244204F424420414E44CB
:101FE000204F4244494900004F424420616E642022
:101FF0004F42442049490000454F424420414E444D
:10200000204F4244494900004A4F424420414E4437
:10201000204F4244494900004A4F424420414E4427
:1020200020454F4244000000454F424420414E4469
:10203000204F4244000000004E4F204F4244000019
:102040004F42444900000000454F42440000000058
:102050004A4F4244000000004F42440001202070DB
:102060000020FDE670B505460C460522AFF2DC0106
:10207000284604F004F918B900202070012070BD32
:102080000522AFF2E801284604F0F9F818B900205B
:1020900020700220F3E70522AFF2E801284604F0A1
:1020A000EEF818B9002020700420E8E70522AFF20E
:1020B000F401284604F0E3F818B900202070082045
:1020C000DDE705227BA1284604F0D9F818B90020E5
:1020D00020701020D3E7052278A1284604F0CFF81D
:1020E00018B9002020702020C9E7052275A12846D4
:1020F00004F0C5F818B9002020704020BFE7052281
:1021000072A1284604F0BBF818B900202070802086
:10211000B5E70222AFF22061284604F0B0F810B90A
:1021200000202070ABE7012020700020A7E770B5E9
:1021300005460C460222AFF2B011284604F09FF883
:1021400010B90020207070BD0222AFF6842128460D
:1021500004F095F818B9002020700120F3E7012061
:1021600020700020EFE770B505460C46072259A104
:10217000284604F084F818B9002020700A2070BDA9
:10218000072256A1284604F07AF818B900202070DA
:102190000E20F4E7072253A1284604F070F818B97E
:1021A000002020700F20EAE7072250A1284604F003
:1021B00066F818B900202070FF20E0E706224DA144
:1021C000284604F05CF818B9002020700920D6E7F2
:1021D00006224AA1284604F052F818B900202070BF
:1021E0000B20CCE7062247A1284604F048F818B98E
:1021F000002020700C20C2E7062244A1284604F0EB
:102200003EF818B9002020700D20B8E7042241A143
:10221000284604F034F818B9002020700220AEE7F8
:1022200004223EA1284604F02AF818B900202070A4
:102230000720A4E704223BA1284604F020F818B99F
:102240000020207008209AE7032238A1284604F0D5
:1022500016F818B900202070012090E703221EA173
:10226000284604F00CF818B900202070032086E7F7
:1022700003222FA1284604F002F818B9002020708C
:1022800004207CE703222BA1284603F0F8FF18B9AD
:1022900000202070052072E7032227A1284603F0C2
:1022A000EEFF18B900202070062068E7012020709A
:1022B000002064E742332D533100000042332D5398
:1022C0003200000042342D533100000042342D53BF
:1022D0003200000042495F4D4554480042495F507A
:1022E000524F500042495F454C45430049534F2FE0
:1022F0005341450042495F474153000042495F4511
:102300005448000042495F4C5047000042495F4337
:102310004E4700004D4554480000000050524F50B9
:1023200000000000454C45430000000047415300B9
:1023300044534C004C504700434E47002DE9F043B6
:102340009BB0064688460024FF48006801900020A4
:10235000FE494875087508460661404601F0E3F8F5
:10236000012001F031F940E2F948007805280BD14D
:10237000F84803F0F9FC0020F44908730875487523
:102380000820F349087074E1F148007806280BD161
:10239000F14803F0E9FC0020EC4908730875487522
:1023A0000820EB49087064E1E9480078092803D067
:1023B000E74800780A286BD1E5480078092801D160
:1023C000002404E0E24800780A2800D1012401A991
:1023D00011F81410E14A8818E149FEF713FD0128AD
:1023E00002D002280BD106E0DE4803F0BDFCDEA0DF
:1023F00003F0C6FC47E0DD4803F0B6FC43E001A86B
:1024000000EB440041780122D548FEF78EFCD0480D
:102410000078092803D1D64803F0A6FC0EE0CC488A
:1024200000780A2803D1D34803F09EFC06E0C84890
:1024300000780B2802D1D04803F096FC642102A852
:1024400001F094F9C648007800EB4000420001A872
:1024500010F81400C01CC14BC11802A803F07CFF87
:1024600002A803F08DFCC0A003F08AFC1521BC4833
:1024700001F07CF9642102A801F078F96421B748E1
:1024800001F074F900BF00BF0820B1490870F0E006
:10249000AF4800780C287AD16946B048801DFEF715
:1024A000E0F905469DF80000012811D1AD4803F080
:1024B0005BFCADA003F064FC0820A5490870642112
:1024C000A64801F053F90221AC4801F04FF98CE124
:1024D000AB480078A8421CD0002412E0A94800EBC9
:1024E0004510017A06F6BC3000EB0110401CA549EE
:1024F00001EB4511497A2144405CA3490860601C06
:10250000C4B2A04800EB4510807AA042E6DC9C48AB
:1025100005709A4A9B499148FEF7CEF900909DF8C4
:102520000000012814D18F4803F01EFC974803F0E7
:102530001BFC97A003F024FC082085490870642147
:10254000864801F013F902218C4801F00FF94CE1A3
:102550009DF8000002281BD1824803F005FC8D483D
:1025600003F002FC874901EB4511C86903F008FC40
:102570007DA003F005FC08207549087064217748A8
:1025800001F0F4F802217D4801F0F0F82DE126E099
:10259000002412E07948015D7A4800EB4510027A88
:1025A00006F6BC3000EB0210401C764A02EB4512E6
:1025B000527A22448154601CC4B2724800EB451028
:1025C000807AA042E6DC08206149087064216348F3
:1025D00001F0CCF80221694801F0C8F849E05C48F4
:1025E00000780D2845D16C4A11215C48C01DFEF7CA
:1025F0001DF901280DD1694803F0B6FB5AA003F07C
:10260000BFFB0820524908706421544801F0AEF81D
:10261000EBE0002713E000240DE004EB87005E49A7
:102620000A5C381D06F6BC3101EB0010401CA11DF0
:102630004254601CC4B2042CEFDB781CC7B2042FD8
:10264000E9DB5548017C86F8431C554803F08CFBB8
:10265000514803F095FB44A003F092FB08203C494D
:10266000087064213D4801F081F815213C4801F0D3
:102670007DF83648007A012850D1002240F22551D9
:10268000484801F064F9002419E01E2000F0B6FC6F
:102690002E490969091D2D4A126802EB820201EBDD
:1026A0008201CA7C2949096901F6BC3101EB02119A
:1026B00001EB0411481C00F0D7FF601CC4B2234892
:1026C0000069001D2149096801EB810100EB8100CF
:1026D000C17C1E48006900F6BC3000EB0110007898
:1026E000A042D2DC002019490872012240F2255193
:1026F0002C4801F02CF9022000F080FC00BF2A4891
:10270000008800F0FF092948B0F8000800F0FF0930
:102710004FF000000D490873087565E00B48407DD7
:10272000012861D10020094948750875002240F24E
:1027300025511C4801F00BF94FF4167000F05EFCB7
:102740005521184834E000008CA9000824470020D7
:1027500001000020ADDD0008DFDD0008C0460020DC
:102760004D470020B4BC00080D0A000018BD000849
:102770004ABD00087CBD0008AEBD00080C0000206A
:1027800004000020AC9600080800002076BE000877
:10279000220D0A0063DC00083C47002095DC00089D
:1027A000E5DC0008003801400438014000300140F9
:1027B00001F031F90A2000F021FCE921734801F011
:1027C0002AF90A2000F01AFC8F21704801F023F941
:1027D000012240F225516D4801F0B9F8022000F0C5
:1027E0000DFC00206A49087300BF6A480078A0B158
:1027F00068480078012810D06648007802280CD07C
:1028000064480078032808D062480078042804D07F
:102810006048007807287FF4A7AD1BB0BDE8F083BF
:10282000F0B502460024002320E000201AE0002634
:10283000574D2D6905F6BC35CF1805EB07156D1CF6
:10284000042707EB4007EE55514D2D6905F6BC35C1
:10285000CF1805EB07156D1C052707EB4007EE5554
:10286000451CE8B20328E2DB5D1CEBB2042BDCDB89
:102870001578032D25DA00201FE0012505EB400522
:10288000565D434D2D6905F6BC3505EB01156D1CF4
:10289000042707EB4007EE55022505EB4005565D82
:1028A0003B4D2D6905F6BC3505EB01156D1C052763
:1028B00007EB4007EE55451CE8B215788542DCDC95
:1028C00062E01578032695FBF6F706FB175565B110
:1028D000157895FBF6F56D1CEEB22D4D2D6905F6BC
:1028E000BC3505EB01152E700BE01578032695FB22
:1028F000F6F5EEB2264D2D6905F6BC3505EB011552
:102900002E70002337E0002030E0012505EB400564
:1029100003EB430605EB4605565D1D4D2D6905F697
:10292000BC35CF1805EB07156D1C042707EB4007D6
:10293000EE55022505EB400503EB430605EB460586
:10294000565D134D2D6905F6BC35CF1805EB0715FF
:102950006D1C052707EB4007EE55651CEDB22C46B4
:102960001678B54200DB03E0451CE8B20328CCDB57
:1029700000BF5D1CEBB2064D2D6905F6BC3505EBBD
:1029800001152D789D42BEDCF0BD000000380140ED
:1029900024470020010000202DE9F0439BB00646AB
:1029A00088460024FF48006801900020FE494875D1
:1029B000087508460661404600F0B5FD012000F0AC
:1029C00003FE2BE2F9480078072809D1F84803F004
:1029D000CBF90020F44908730820F449087064E139
:1029E000F2480078092803D0F04800780A286BD113
:1029F000EE480078092801D1002404E0EB48007873
:102A00000A2800D1012401A911F81410E94A8818F4
:102A1000E949FEF7F7F9012802D002280BD106E0B8
:102A2000E64803F0A1F9E6A003F0AAF947E0E5487B
:102A300003F09AF943E001A800EB44004178022238
:102A4000DD48FEF772F9D9480078092803D1DE483D
:102A500003F08AF90EE0D54800780A2803D1DB4854
:102A600003F082F906E0D14800780B2802D1D8485B
:102A700003F07AF9642102A800F078FECE480078CD
:102A800000EB4000420001A810F81400C01CC94B24
:102A9000C11802A803F060FC02A803F071F9C8A0F5
:102AA00003F06EF91521C44800F060FE642102A80D
:102AB00000F05CFE6421BF4800F058FE00BF00BF7C
:102AC0000820BA490870F0E0B84800780C287AD19C
:102AD0006946B848801DFDF7C4FE05469DF8000014
:102AE000012811D1B54803F03FF9B5A003F048F92A
:102AF0000820AE4908706421AE4800F037FE02217C
:102B0000B44800F033FE89E1B3480078A8421CD0F5
:102B1000002412E0B14800EB4510017A06F6BC3003
:102B200000EB0110401CAD4901EB4511497A2144ED
:102B3000405CAB490860601CC4B2A84800EB45107B
:102B4000807AA042E6DCA4480570A24AA3499948CD
:102B5000FDF7B2FE00909DF80000012814D19748BF
:102B600003F002F99F4803F0FFF89FA003F008F973
:102B700008208E49087064218E4800F0F7FD02217C
:102B8000944800F0F3FD49E19DF8000002281BD1B4
:102B90008A4803F0E9F8954803F0E6F88F4901EB1D
:102BA0004511C86903F0ECF885A003F0E9F80820A6
:102BB0007E49087064217F4800F0D8FD02218548D5
:102BC00000F0D4FD2AE126E0002412E08148015DF6
:102BD000824800EB4510027A06F6BC3000EB02108A
:102BE000401C7E4A02EB4512527A22448154601CFA
:102BF000C4B27A4800EB4510807AA042E6DC082097
:102C00006A49087064216B4800F0B0FD02217148E8
:102C100000F0ACFD49E0654800780D2845D1744AC4
:102C200011216448C01DFDF701FE01280DD1714836
:102C300003F09AF862A003F0A3F808205B4908703B
:102C400064215C4800F092FDE8E0002713E00024D6
:102C50000DE004EB870066490A5C381D06F6BC31BE
:102C600001EB0010401CE11D4254601CC4B2042C56
:102C7000EFDB781CC7B2042FE9DB5D48017C86F8E6
:102C8000441C5D4803F070F8594803F079F84CA0F3
:102C900003F076F80820454908706421454800F0A3
:102CA00065FD1521444800F061FD3F48007A012888
:102CB00050D1002240F22551504800F048FE002437
:102CC00019E01E2000F09AF937490969091D364AB2
:102CD000126802EB820201EB8201CA7C3249096967
:102CE00001F6BC3101EB021101EB0411481C00F0AC
:102CF0000BFD601CC4B22C480069001D2A490968FC
:102D000001EB810100EB8100C17C2748006900F6DE
:102D1000BC3000EB01100078A042D2DC0020224938
:102D20000872012240F22551344800F010FE0220C2
:102D300000F064F900BF3248008800F0FF09314814
:102D4000B0F8000800F0FF094FF0000016490873C2
:102D5000087562E01448407D01285ED100201249C8
:102D600048750875002240F22551244800F0EFFD17
:102D70004FF4167000F042F95521204800F04BFE48
:102D80000A2000F03BF9E9211C4800F044FE0A202B
:102D900000F034F98F21194800F03DFE012240F285
:102DA000255131E070BC00082447002001000020BC
:102DB00011DE0008C04600204D470020B4BC0008CA
:102DC0000D0A000018BD00084ABD00087CBD0008BF
:102DD000AEBD00080C0000200400002090A90008EF
:102DE0000800002076BE0008220D0A0063DC0008FF
:102DF0003C47002095DC0008E5DC00080038014075
:102E000004380140003001406E4800F0A0FD02206F
:102E100000F0F4F800206C49087300BF6B4800789C
:102E2000C0B16A480078012814D0684800780228A8
:102E300010D06648007803280CD064480078042835
:102E400008D062480078052804D060480078062839
:102E50007FF4B8AD1BB0BDE8F083F0B502460024A6
:102E6000002320E000201AE00026574D2D6905F6CA
:102E7000BC35CF1805EB07156D1C052707EB400780
:102E8000EE55514D2D6905F6BC35CF1805EB0715EC
:102E90006D1C062707EB4007EE55451CE8B20328DA
:102EA000E2DB5D1CEBB2042BDCDB1578032D25DAAD
:102EB00000201FE0012505EB4005565D424D2D69C0
:102EC00005F6BC3505EB01156D1C052707EB400722
:102ED000EE55022505EB4005565D3B4D2D6905F687
:102EE000BC3505EB01156D1C062707EB4007EE55B9
:102EF000451CE8B215788542DCDC62E015780326D3
:102F000095FBF6F706FB175565B1157895FBF6F5B9
:102F10006D1CEEB22C4D2D6905F6BC3505EB011587
:102F20002E700BE01578032695FBF6F5EEB2264DD4
:102F30002D6905F6BC3505EB01152E70002337E031
:102F4000002030E0012505EB400503EB430605EBCF
:102F50004605565D1C4D2D6905F6BC35CF1805EBB1
:102F600007156D1C052707EB4007EE55022505EBFD
:102F7000400503EB430605EB4605565D124D2D69F2
:102F800005F6BC35CF1805EB07156D1C062707EBBA
:102F90004007EE55651CEDB22C461678B54200DBB5
:102FA00003E0451CE8B20328CCDB00BF5D1CEBB29C
:102FB000054D2D6905F6BC3505EB01152D789D42B3
:102FC000BEDCF0BD00380140244700200100002095
:102FD0004FF0E021096921F004014FF0E022116176
:102FE000C21700EB5272D210264B1A70194609789C
:102FF0004FF47A725143244A118070470146224AA5
:1030000012884A434FF0E0235A6100229A6101225C
:103010001A6100BF4FF0E022106910F0010F02D0DA
:1030200010F4803FF6D000224FF0E0231A619A613D
:1030300070470146134A12784A434FF0E0235A6121
:1030400000229A6101221A6100BF4FF0E02210694C
:1030500010F0010F02D010F4803FF6D000224FF0A4
:10306000E0231A619A61704730B50446002505E0F7
:103070004FF47A70FFF7C2FF681C85B2A542F7D300
:1030800030BD00000E00002010000020014600BFEF
:10309000704700BFFF4A128812F0400FFAD0C2B248
:1030A000FD4B1A8070473EB504460121084601F0E9
:1030B0001FFE48F69F40ADF80400A0B2ADF8000036
:1030C0000020ADF80600ADF8020069464FF08040E0
:1030D00001F040FF0121880702F028FD00214FF098
:1030E000804002F06FFB01221146900702F087FA40
:1030F0000121880702F05DFA3EBD38B50446012182
:103100000C2001F0E8FDF020ADF8000010208DF853
:10311000030003208DF802006946E04801F028FB17
:103120000122F021DD4801F0D2FB0720ADF80000BC
:1031300010208DF8030003208DF802006946D8485E
:1031400001F016FB01220721D54801F0C0FB2078D1
:10315000D4490870D44804606068FFF7A4FF38BD04
:1031600008B54FF4C06000F01DFD26208DF800006A
:1031700000208DF801008DF8020001208DF8030079
:10318000684600F014FD1C208DF8000002208DF828
:10319000010000208DF8020001208DF80300684630
:1031A00000F005FD14208DF8000001208DF80100CD
:1031B00000208DF8020001208DF80300684600F021
:1031C000F6FC25208DF8000001208DF8010000207C
:1031D0008DF8020001208DF80300684600F0E7FC3E
:1031E00008BD30B585B004460121052001F073FD0E
:1031F0000121480401F07CFD0420ADF810001820E6
:103200008DF8130003208DF8120004A9A34801F0E3
:10321000AFFA0820ADF8100004208DF81300032049
:103220008DF8120004A99D4801F0A2FA0094002034
:10323000ADF80400ADF80600ADF80800ADF80C00DC
:103240000C20ADF80A006946924800F0E8FA00BF89
:1032500091480088C5B24FF04020B0F80004C5B2D4
:103260004FF0010240F225518A4800F070FB012125
:10327000884800F060FB05B030BD10B54FF47A30DF
:10328000FFF7AFFF4820FFF7A3FEFFF769FF87486E
:10329000FFF733FF10BD10B504462078012805D193
:1032A000002210217D4801F012FB04E001221021D0
:1032B0007A4801F00CFB6078012805D1002220211A
:1032C000764801F004FB04E001222021734801F05C
:1032D000FEFAA078012805D1002240216F4801F0B4
:1032E000F6FA04E0012240216C4801F0F0FAE0789F
:1032F000012805D100228021684801F0E8FA04E0A5
:1033000001228021654801F0E2FA2079012805D1E7
:1033100000220121624801F0DAFA04E0012211469C
:103320005F4801F0D4FA6079012805D1002202211A
:103330005B4801F0CCFA04E001220221584801F078
:10334000C6FAA079012805D100220421544801F0D1
:10335000BEFA04E001220421514801F0B8FA10BD80
:1033600008B50121092001F0B6FC0121480601F051
:10337000BFFC4FF48070ADF8000004208DF803000E
:1033800003208DF802006946454801F0F1F94FF439
:103390000070ADF8000018208DF8030003208DF8B0
:1033A000020069463E4801F0E3F901214FF4EA10BA
:1033B00001F0ADFA08BD3EB50446FFF7D1FF3C4829
:1033C00000F06CFC684600F08DFD00208DF80600D2
:1033D0008DF807008DF808008DF809008DF80A00B7
:1033E0008DF80B008DF802008DF803000A208DF88F
:1033F000040005208DF80500ADF8004069462C4812
:1034000000F065FC3EBD2DE9FF4107460C46154620
:103410001E4600208DF80A008DF80B0001208DF863
:103420000C00C7F34F30ADF80000042000EBC700DC
:1034300080B2ADF80200C5F34F30ADF804000420AF
:1034400000EBC50080B2ADF806000020ADF8080022
:1034500001208DF80D00684600F0C7FC01208DF8B2
:103460000A00C4F34F30ADF80000042000EBC400A4
:1034700080B2ADF80200C6F34F30ADF8040004206E
:1034800000EBC60080B2ADF80600684600F0ADFC67
:1034900010E00000004400400444004000080140E7
:1034A000000C0140180000201C00002074BC000823
:1034B00000640040FFF754FE01220221B04800F0F2
:1034C000A4FFBDE8FF812DE9FF4104460D461646E5
:1034D0001F4601208DF80A0000208DF80B008DF8A2
:1034E0000C006005000CADF800006805000CADF89C
:1034F00002007005000CADF804007805000CADF872
:1035000006000020ADF8080001208DF80D00684687
:1035100000F06BFCFFF724FE01220221984800F026
:1035200074FFBDE8FF8130B585B00446012144F247
:10353000090001F0D0FB0121042001F0E8F940204E
:10354000ADF8100018208DF8130003208DF812003C
:1035500004A98C4801F00CF901224021894801F0AE
:10356000B6F98020ADF8100004208DF81300032078
:103570008DF8120004A9834801F0FAF800940020A5
:10358000ADF80400ADF80600ADF80800ADF80C0089
:103590000C20ADF80A0069467B4800F040F900BFF6
:1035A0007A480088C5B27A48B0F80008C5B24FF032
:1035B000010240F22551744800F0C9F90121724816
:1035C00000F0B9F905B030BD38B504464820FFF722
:1035D000FFFC0121092001F07EFB01216D4801F073
:1035E00096F90820ADF8000010208DF803000320A4
:1035F0008DF802006946634801F0BAF801220821FB
:10360000604801F064F91020ADF800008DF8030067
:1036100003208DF8020069465A4801F0A9F80122FA
:103620001021584801F053F96420FFF7E7FC012C02
:1036300005D100220821534801F049F913E0022C7A
:1036400005D1002210214F4801F041F90BE0032C75
:1036500009D1002208214B4801F039F9002210213C
:10366000484801F034F938BD2DE9F041044600BF67
:1036700046480088C7B24648B0F80008C7B24FF0C5
:1036800000072078802803D1E078401DC5B21DE0F6
:10369000207800F0F000802803D120787C38C5B273
:1036A00014E02078C02803D1E078401DC5B20DE0B9
:1036B0002078CC2802D10125CC2707E0207800F023
:1036C000F000C02802D12078BC38C5B2002604E042
:1036D000A05D3844C7B2701CC6B2681EB042F7DCA9
:1036E000002608E0A15D284800F095F90120FFF7C9
:1036F00085FC701CC6B2681EB042F3DC3946224815
:1037000000F089F9BDE8F0812DE9F0410546002778
:1037100000BF1E480088C7B21D48B0F80008C7B2F5
:103720004FF000072E78012E00D1CC27002405E0B1
:10373000601C285C3844C7B2601CC4B2701EA04232
:10374000F6DC002409E0601C295C0F4800F063F9F6
:103750000120FFF753FC601CC4B2701EA042F2DCD3
:103760003946094800F057F9BDE8F08102460020CB
:1037700002E000231354401C8842FAD37047000033
:1037800000640040000C0140003801400438014052
:10379000003001400002300010B50446FC4884426D
:1037A00009D10121880301F0B0FA00214FF48040D3
:1037B00001F0ABFA32E0F748844209D10121480414
:1037C00001F0B0FA00214FF4003001F0ABFA25E02F
:1037D000F148844209D10121880401F0A3FA0021B3
:1037E0004FF4802001F09EFA18E0EC48844209D1A1
:1037F0000121C80401F096FA00214FF4002001F0E5
:1038000091FA0BE0E648844208D10121080501F055
:1038100089FA00214FF4801001F084FA10BD2DE9DF
:10382000F04786B005460E460024A24600BFA146DA
:103830000027B08900B100BF2F462C8A4CF6FF70DC
:103840000440F08804432C82AC894EF6F310044007
:10385000B08831890843718908430443AC81AC8A3C
:103860004FF6FF400440B0890443AC8201A801F048
:10387000C5F9C748874202D1DDF810A001E0DDF8A4
:103880000CA0A88910F4004F08D00AEBCA0000EB86
:103890000A1031684900B0FBF1F807E00AEBCA00F2
:1038A00000EB0A1031688900B0FBF1F86420B8FB26
:1038B000F0F004012009642101FB1089A88910F4AB
:1038C000004F08D0322000EBC900B0FBF1F000F04F
:1038D0000700044308E0322000EB09106421B0FB2C
:1038E000F1F000F00F0004432C8106B0BDE8F08732
:1038F0004FF41651016000218180C18001810C21AB
:10390000418100218181704710B502460020108A54
:103910004FF2FF0318400B884C8823438C882343C5
:10392000CC8823431843108210BD002101804180C0
:103930008180C180704721B1828942F40052828126
:1039400004E082894DF6FF731A4082817047F0B51A
:1039500003460024002600250020A1F510676A3FD9
:1039600000D100BF1846C1F3421401F01F06012721
:1039700007FA06F5012C01D10C3004E0022C01D12C
:10398000103000E014301AB107682F43076002E0DE
:103990000768AF430760F0BD10B51AB1838A0B43C7
:1039A000838204E0838ACC43A4B22340838210BD87
:1039B000028A4FF6F0731A400282028A0A43028298
:1039C000704782894FF2FF731A40828182890A43CD
:1039D0008281704721B1828942F00202828104E033
:1039E00082894FF6FD731A4082817047028A4FF632
:1039F000DF731A400282028A0A430282704721B1B1
:103A0000028A42F48042028204E0028A4BF6FF738B
:103A10001A4002827047C1F3080282807047014653
:103A20008888C0F308007047818941F001018181D5
:103A30007047028BD2B20283028B42EA01220283D8
:103A40007047028B02F47F420283028B0A43028397
:103A5000704721B1828A42F02002828204E0828A89
:103A60004FF6DF731A408282704721B1828A42F09A
:103A70001002828204E0828A4FF6EF731A4082823B
:103A8000704721B1828A42F00802828204E0828A71
:103A90004FF6F7731A408282704721B1828942F44F
:103AA0000042828103E08289C2F30E028281704764
:103AB00021B1828A42F40062828204E0828A4FF25B
:103AC000FF731A4082827047828A4FF6FB731A4056
:103AD0008282828A0A438282704721B1828A42F0BE
:103AE0000202828204E0828A4FF6FD731A408282CB
:103AF000704702460020B1F5007F00D100BF138857
:103B00000B4201D0012000E00020704701F4007258
:103B1000B2F5007F00D100BFCA430280704770B584
:103B200002460024002300250020A1F510666A3E0D
:103B300000D100BFC1F3421501F01F03012606FAB0
:103B400003F3012D02D19689334006E0022D02D104
:103B5000168A334001E0968A33400C12012606FA99
:103B600004F41688344013B10CB1012000E00020A9
:103B700070BD10B500220023A1F510646A3C00D18D
:103B800000BF0A1201249440A3B2DC43048010BD9C
:103B9000003801400044004000480040004C004014
:103BA0000050004036490143364A1160704770B5F5
:103BB000002100230F22C4784CB3324C246804F453
:103BC000E064C4F5E0644FEA1421C1F1040322FA71
:103BD00001F2447804FA03F1847804EA020444EA26
:103BE00001014FEA0111284C0678A155047804F030
:103BF0001F054FF0010404FA05F405784FEA651536
:103C00004FF0E02606EB8505C5F8004109E0047891
:103C100004F01F050124AC401C4D0678761145F8D0
:103C2000264070BD1A4A0A4002431A4B1A60704778
:103C300041B1194A126842EA00024FF0E023C3F88A
:103C4000102D07E0144A126822EA00024FF0E02328
:103C5000C3F8102D7047042808D14FF0E0210969FE
:103C600041F004014FF0E022116107E04FF0E02144
:103C7000096921F004014FF0E02211617047000052
:103C80000000FA050CED00E000E400E080E100E057
:103C900080FFFF1F08ED00E010ED00E010B50446C6
:103CA000FF48844209D10121480601F03BF8002178
:103CB0004FF0007001F036F808E00121880601F0AD
:103CC00031F800214FF0806001F02CF810BD30B5C4
:103CD000024600200023146824F0020414601468D3
:103CE00044F00104146000E05B1C546804F001041B
:103CF000012C03D0A3F57F44FF3CF5D1546804F0B8
:103D00000104012C01D000206EE08C79012C04D13B
:103D1000146844F08004146003E0146824F0800404
:103D20001460CC79012C04D1146844F04004146070
:103D300003E0146824F0400414600C7A012C04D1D0
:103D4000146844F02004146003E0146824F0200494
:103D500014604C7A012C04D1146844F010041460EF
:103D600003E0146824F0100414608C7A012C04D150
:103D7000146844F00804146003E0146824F0080494
:103D80001460CC7A012C04D1146844F0040414604B
:103D900003E0146824F0040414608C78A407CD7840
:103DA00044EA05640D7944EA05444D7944EA055432
:103DB0000D886D1E2C43D461146824F00104146036
:103DC000002300E05B1C546804F00104012C03D1C3
:103DD000A3F57F44FF3CF5D1546804F00104012CA5
:103DE00001D1002000E0012030BD10B50021837A10
:103DF000012202FA03F1AB4A126842F00102AA4B17
:103E0000C3F800261A46D2F81C2622EA0102A74B64
:103E10001A60027BB2B9A64A126822EA0102A44BD8
:103E20001A604288C38842EA0343A24A847A42F86D
:103E300034300288838842EA03439E4A847A02EB44
:103E4000C4025360027B012A16D1994A126842EAE1
:103E50000102974B1A604288038842EA0343954A5D
:103E6000847A42F83430C288838842EA0343914A14
:103E7000847A02EBC4025360C27A3AB98E4A12685D
:103E800022EA0102884BC3F8042606E08A4A126837
:103E900042EA0102844BC3F80426028932B9874AF8
:103EA000126822EA0102804BC3F814260289012A13
:103EB00006D1824A126842EA01027B4BC3F81426FB
:103EC000427B012A06D1794A126842EA0102764B06
:103ED000C3F81C26734A126822F00102724BC3F821
:103EE000002610BD00218171C17101724172817281
:103EF000C1728170C17003210171022141710121E0
:103F0000018070476749096841F00101664AC2F8BB
:103F100000166449096843F60E7221EA0201624AFA
:103F2000C2F800161146D1F8001641EA0021C2F885
:103F300000161146D1F8001621F00101C2F8001652
:103F4000704721B1026842F48032026003E00268E7
:103F500022F4803202607047E1B1026842F08002D0
:103F600002604FF4C272125842F480734FF4C2726E
:103F700013504FF4CA72125842F480734FF4CA724D
:103F800013504FF4D272125842F480734FF4D2722D
:103F900013501BE0026822F0800202604FF4C272EC
:103FA000125822F480734FF4C27213504FF4CA7245
:103FB000125822F480734FF4CA7213504FF4D27225
:103FC000125822F480734FF4D2721350704710B518
:103FD00002460020936803F08063B3F1806F00D144
:103FE00010E0936803F00063B3F1006F01D101208A
:103FF00008E0936803F08053B3F1805F01D10220A1
:1040000000E0042004287ED002F5C07303EB001307
:104010001B6803F0010402F5C07303EB00131C607E
:104020000B7A7BB94B7A0C6843EA445302F5C074AF
:1040300004EB00142468234302F5C07404EB00145D
:10404000236010E00B7A4C6843EAC4034C7A2343A4
:1040500002F5C07404EB00142468234302F5C07415
:1040600004EB001423608B7A03F00F038B7202F5CC
:10407000C07303EB00135B6823F00F0402F5C073F9
:1040800003EB00135C6002F5C07303EB00135B6885
:104090008C7A234302F5C07404EB001463600FE0D4
:1040A0000064004000660040006000401C66004064
:1040B0000C66004040660040046600401466004004
:1040C0008B7B1C064B7B44EA03440B7B44EA0323B3
:1040D000CC7A234302F5C07404EB0014A3608B7CFC
:1040E0001C064B7C44EA03440B7C44EA0323CC7B50
:1040F000234302F5C07404EB0014E36002F5C073BF
:1041000003EB001300E007E01B6843F0010402F535
:10411000C07303EB00131C6010BD10B502460023F2
:1041200021B1012907D002290FD109E09068F84C8C
:1041300000EA04030BE09068F64C00EA040306E092
:104140009068F54C00EA040301E0002300BF00BFC3
:10415000F24C181BA34216D007DC83B16FF08060CD
:1041600018180ED0022818D111E0B0F5007F10D039
:10417000EB4C001909D0B0F5003F0ED10BE0022343
:104180000DE000230BE0002309E0002307E00123FA
:1041900005E0012303E0012301E0002300BF00BF8D
:1041A000D8B210BD21B1012907D002290FD109E0F1
:1041B000826842F0800282600AE0826842F4004233
:1041C000826005E0826842F40002826000E000BF85
:1041D00000BF704710B500F5D87303EB01131B68DF
:1041E00003F004031372137A53B900F5D87303EB89
:1041F00001131B6840F2FF7404EA5353136009E093
:1042000000F5D87303EB01131B686FF0604404EAF8
:10421000D303536000F5D87303EB01131B6803F05D
:104220000203537200F5D87303EB01135B6803F0CC
:104230000F03937200F5D87303EB01135B681B0A3D
:10424000D37400F5D87303EB01139B68D37200F5A8
:10425000D87303EB01139B681B0A137300F5D87323
:1042600003EB01139B681B0C537300F5D87303EB2E
:1042700001139B681B0E937300F5D87303EB0113B6
:10428000DB68D37300F5D87303EB0113DB681B0AFB
:10429000137400F5D87303EB0113DB681B0C537424
:1042A00000F5D87303EB0113DB681B0E937421B97F
:1042B000C36843F02003C36003E0036943F02003B5
:1042C000036110BD21B9C26842F02002C26003E060
:1042D000026942F02002026170470246002019B9CB
:1042E000D36803F0030006E0012903D1136903F04A
:1042F000030000E00020704710B502460B46002086
:104300004FF6FF71BBB9146824F0020444F00104B5
:10431000146000E0491E546804F00304012C01D02D
:104320000029F7D1546804F00304012C01D00020C7
:1043300032E0012030E0012B13D1146824F0030493
:10434000146000E0491E546814F0030F01D00029E6
:10435000F8D1546814F0030F01D000201CE00120B4
:104360001AE0022B17D1146824F0010444F002046F
:10437000146000E0491E546804F00304022C01D0CC
:104380000029F7D1546804F00304022C01D0002066
:1043900002E0012000E0002010BD014600200A6874
:1043A00022F0010242F002020A604A6802F00302AF
:1043B000022A00D10120704701464FF6FF7200200B
:1043C0000B6823F002030B6000E0521E4B6803F001
:1043D0000203022B01D1002AF7D14B6803F002033C
:1043E000022B00D001207047014600208A6902F0AC
:1043F00070007047014600208A69100E7047014620
:1044000000208A69C2F3074070471AB143690B4321
:10441000436102E043698B434361704710B5024634
:10442000002011F4700F08D09369C1F313042342E4
:1044300001D001202DE000202BE011F0807F08D07A
:104440005368C1F31304234201D0012021E000206E
:104450001FE011F0006F08D09368C1F313042342EA
:1044600001D0012015E0002013E011F0007F08D0FA
:10447000D368C1F31304234201D0012009E00020D6
:1044800007E01369C1F31304234201D0012000E0C7
:10449000002010BD0022234B994202D100238361EA
:1044A00011E0C1F3130211F0007F01D0C2600AE0F5
:1044B00011F0806F01D0026105E011F0006F01D0B2
:1044C000826000E042607047024600200A4201D04C
:1044D000012000E00020704770B504460D4600261C
:1044E0006069284271D0B5F5807F68D01CDC082D4A
:1044F00041D006DC012D2CD0022D30D0042D7ED1F0
:1045000033E0102D3DD0202D41D0402D77D144E017
:10451000030000040003000800000310000100086D
:104520000001FFF77000F030B5F5004F61D009DCF5
:10453000B5F5007F4AD0B5F5806F4DD0B5F5006F69
:104540005DD150E0B5F5803F2DD0B5F5003F56D197
:104550002FE0A0685549FFF7B7FF064651E0E06835
:104560000321FFF7B1FF06464BE0E0680821FFF7A3
:10457000ABFF064645E0E0681021FFF7A5FF0646C1
:104580003FE020690321FFF79FFF064639E02069DD
:104590000821FFF799FF064633E020691021FFF755
:1045A00093FF06462DE060680821FFF78DFF064661
:1045B00027E060681021FFF787FF064621E0A06929
:1045C0000121FFF781FF06461BE01BE0A0690221E5
:1045D000FFF77AFF064614E0A0690421FFF774FF95
:1045E00006460EE00BE0A0697021FFF76DFF06465E
:1045F00007E060680421FFF767FF064601E0002638
:1046000000BF00E00026304670BDB1F5007F3AD013
:104610000FDC202928D006DC01291CD004291DD05C
:10462000082940D11DE0402921D0B1F5807F3AD141
:1046300026E0B1F5004F31D006DCB1F5806F25D012
:10464000B1F5006F2FD124E0B1F5803F12D0B1F564
:10465000003F28D111E0154A826025E00822C2609F
:1046600022E01022C2601FE0082202611CE010223A
:10467000026119E00822426016E01022426013E055
:104680000422426010E0042242600DE004224260F5
:104690000AE0002282610422426005E00022826179
:1046A0000422426000E000BF00BF7047010101002A
:1046B00010B50446CA48844208D10121042000F004
:1046C00024FB0021042000F020FB46E0C548844282
:1046D00008D10121082000F018FB0021082000F07B
:1046E00014FB3AE0C048844208D10121102000F0B8
:1046F0000CFB0021102000F008FB2EE0BB48844298
:1047000008D10121202000F000FB0021202000F032
:10471000FCFA22E0B648844208D10121402000F092
:10472000F4FA0021402000F0F0FA16E0B14884428B
:1047300008D10121802000F0E8FA0021802000F05B
:10474000E4FA0AE0AC48844207D10121801500F068
:10475000DCFA0021A01500F0D8FA10BD10B5012137
:10476000084600F0D2FA0021012000F0CEFA10BD78
:104770002DE9F041024600250026002000230024F8
:10478000002791F803C00CF00F0591F803C01CF04E
:10479000100F03D091F802C04CEA0505B1F800C033
:1047A0001CF0FF0F31D0146800202BE04FF0010CFB
:1047B0000CFA00F3B1F800C00CEA03069E4220D1C7
:1047C00083004FF00F0C0CFA03F7BC4305FA03FC0F
:1047D0004CEA040491F803C0BCF1280F06D14FF055
:1047E000010C0CFA00FCC2F814C00AE091F803C0F6
:1047F000BCF1480F05D14FF0010C0CFA00FCC2F8D7
:1048000010C0401C0828D1D31460B1F800C0BCF11E
:10481000FF0F34DD546800202EE000F1080C4FF04B
:10482000010808FA0CF3B1F800C00CEA03069E4236
:1048300021D183004FF00F0C0CFA03F7BC4305FAAB
:1048400003FC4CEA040491F803C0BCF1280F05D125
:1048500000F1080C08FA0CF8C2F8148091F803C0B3
:10486000BCF1480F07D100F1080C4FF0010808FA1D
:104870000CF8C2F81080401C0828CED35460BDE864
:10488000F0814FF6FF710180022181700421C17017
:1048900070470246002093680B4201D0012000E0DF
:1048A000002070470146886880B2704702460020A9
:1048B000D3680B4201D0012000E000207047014680
:1048C000C86880B2704701617047416170470AB1A2
:1048D000016100E041617047C16070474FF4803270
:1048E0000A438261816182618269826970470246FE
:1048F0000020424B18684FF68073184040EA0210BF
:1049000008433E4B186070473D49C8617047F0B599
:104910000A46002300240021002500F00046B6F1DD
:10492000004F02D1354EF16901E0344E7168C0F399
:10493000034583B200F44016B6F5401F08D121F0BC
:1049400070612E4E766826F070662C4F7E6012E005
:1049500000F48016B6F5801F06D1032606FA05F48A
:10496000A14341F0706106E0460D360103FA06F6F8
:10497000B14341F0706122B1460D360103FA06F6EB
:10498000314300F00046B6F1004F02D11B4EF161F9
:1049900001E01A4E7160F0BD30B500228B071C0F8C
:1049A0000F2303FA04F2154B08338C1053F824300C
:1049B0009343124C08348D1044F8253023468C1054
:1049C00053F824308C07240F00FA04F423430B4CD3
:1049D00008348D1044F8253030BD0A49086070470E
:1049E00000080140000C014000100140001401408B
:1049F00000180140001C014000200140000001405F
:104A000000002042DC002042DB48006840F001004A
:104A1000D949086008464068D8490840D6494860E6
:104A200008460068D6490840D3490860084600682F
:104A300020F4802008600846406820F4FE004860AA
:104A40004FF41F0088607047CB49096821F480311A
:104A5000C94A11601146096821F480211160B0F53E
:104A6000803F03D0B0F5802F0ED106E0C24909681F
:104A700041F48031C04A116007E0BF49096841F440
:104A8000A021BD4A116000E000BF00BF704710B513
:104A900001460022002300204A11012A02D1B64C0F
:104AA000236806E0022A02D1B34C236A01E0B24C2B
:104AB000636A01F01F02012494401C4201D00120CE
:104AC00000E0002010BD70B500240025002600BFC6
:104AD0003120FFF7DCFF0646641CB4F5A06F01D05F
:104AE000002EF5D03120FFF7D2FF08B1012500E0FC
:104AF0000025284670BD014600209F4A106820F01E
:104B0000F80040EAC100106070479E490860704795
:104B100002460020984B586820F47C1042EA0103BA
:104B20001843954B58607047964908667047014690
:104B30000020914A506820F00300084350607047FD
:104B40008D48406800F00C007047014600208A4AFA
:104B5000506820F0F0000843506070470146002084
:104B6000854A506820F4E060084350607047014671
:104B70000020814A506820F4605040EAC100506033
:104B8000704729B17C4A527A02437B4B5A7206E045
:104B9000794A527AC343DBB21A40774B5A72704754
:104BA00079490860704701460020734A506820F434
:104BB00040400843506070470021744A11706E4AAB
:104BC00082F82010012802D0042808D103E0012136
:104BD0006E4A117004E005216C4A117000E000BFBC
:104BE00000BF70476A49086070476349096A01431A
:104BF000614A1162704767490860704730B500210B
:104C00000022002400235C4D6D6805F00C0121B1E9
:104C1000042905D0082923D105E05F4D056022E075
:104C20005D4D05601FE0544D6D6805F47012524DE6
:104C30006D6805F48034022505EB92421CB9574D8E
:104C4000554305600BE04C4D6D6815F4003F03D0F3
:104C5000524D5543056002E04F4D5543056002E05B
:104C60004D4D056000BF00BF434D6D6805F0F0017C
:104C700009094B4D6B5C0568DD4045603E4D6D6834
:104C800005F4E061090A464D6B5C4568DD408560CE
:104C9000394D6D6805F46051C90A414D6B5C45683A
:104CA000DD40C560344D6D6805F44041890B3D4DD4
:104CB0006B5CC568B5FBF3F5056130BD29B12E4AC3
:104CC000526902432C4B5A6104E02B4A52698243D9
:104CD000294B5A61704729B1274A92690243264BF2
:104CE0009A6104E0244A92698243234B9A61704797
:104CF00029B1214AD26902431F4BDA6104E01E4AFE
:104D0000D26982431C4BDA61704729B11A4AD268D2
:104D10000243194BDA6004E0174AD2688243164B0B
:104D2000DA60704729B1144A12690243124B1A61C2
:104D300004E0114A126982430F4B1A6170471A4905
:104D4000086070470F49C86470470B49C8717047C5
:104D50000948406A40F08070074948627047014640
:104D60000020054A92680A4201D0012000E000209C
:104D70007047014988727047001002400000FFF838
:104D8000FFFFF6FE00004242D800424220100240DF
:104D9000800442423C04424200127A0000093D0075
:104DA00021000020310000204004424210B504469A
:104DB000FF48844208D10121C014FFF7A6FF00215B
:104DC000E014FFF7A2FFC4E0B4F1804F08D1012145
:104DD0000846FFF7A7FF00210120FFF7A3FFB8E077
:104DE000F448844208D101210220FFF79BFF0021F3
:104DF0000220FFF797FFACE0EF48844208D1012181
:104E00000420FFF78FFF00210420FFF78BFFA0E0B5
:104E1000EA48844208D101210820FFF783FF0021DE
:104E20000820FFF77FFF94E0E548844208D1012184
:104E30001020FFF777FF00211020FFF773FF88E0B5
:104E4000E048844208D101212020FFF76BFF0021B8
:104E50002020FFF767FF7CE0DB48844208D1012176
:104E60004014FFF752FF00216014FFF74EFF70E07F
:104E7000D648844209D10121C804FFF746FF00212A
:104E80004FF40020FFF741FF63E0D148844209D18D
:104E900001210805FFF739FF00214FF48010FFF7CB
:104EA00034FF56E0CB48844209D101214805FFF781
:104EB0002CFF00214FF40010FFF727FF49E0C64800
:104EC000844208D101214020FFF72CFF002140201F
:104ED000FFF728FF3DE0C148844208D1012180202E
:104EE000FFF720FF00218020FFF71CFF31E0BC48C6
:104EF000844208D101218015FFF714FF0021A0157D
:104F0000FFF710FF25E0B748844209D101210804CA
:104F1000FFF7FBFE00214FF48030FFF7F6FE18E0AC
:104F2000B148844209D101214804FFF7EEFE002177
:104F30004FF40030FFF7E9FE0BE0AC48844208D1A3
:104F400001218804FFF7E1FE00214FF48020FFF7E4
:104F5000DCFE10BD00220288954B98420ED09A4B81
:104F600098420BD0B0F1804F08D0924B984205D0B8
:104F7000914B984202D0914B984204D14FF68F73D7
:104F80001A404B881A438E4B984207D08D4B98425B
:104F900004D04FF6FF431A40CB881A4302808B8817
:104FA00083850B880385824B98420BD0864B9842B1
:104FB00008D08C4B984205D08B4B984202D08B4B3B
:104FC000984201D10B7A038601238382704770B522
:104FD000002400220023058C4FF6FE763540058420
:104FE000028C8388048B4FF68F752C40B51E2C40A5
:104FF0000D882C43751E2A400D892A434D882A436B
:105000006B4DA8420BD0704DA84208D0754DA842F8
:1050100005D0754DA84202D0744DA84213D14FF669
:10502000F7752A404D892A434FF6FB752A408D8833
:105030002A434FF6FF652B404FF6FF552B408D89D5
:105040002B43CD892B4383800483CD8885860284BE
:1050500070BD70B5002400220023058C4FF6EF765A
:1050600035400584028C8388048B48F6FF752C40FC
:105070004FF6FF452C400D882D0644EA15444FF6A7
:10508000DF752A400D892D0542EA15424D882D0510
:1050900042EA1542464DA84202D04B4DA8421BD1D0
:1050A0004FF67F752A404D892D0542EA15424FF68D
:1050B000BF752A408D882D0542EA15424FF6FF350F
:1050C0002B404FF2FF752B408D89AD0443EA154309
:1050D000CD89AD0443EA154383800483CD880587D9
:1050E000028470BD70B5002400220023058C4FF6A9
:1050F000FF6635400584028C8388848B4FF68F755C
:105100002C404FF6FC752C400D882C434FF6FF5574
:105110002A400D892D0642EA15424D882D0642EAA5
:105120001542234DA84202D0274DA8421BD14FF271
:10513000FF752A404D892D0642EA15424FF6FF358C
:105140002A408D882D0642EA15424EF6FF752B4007
:105150004DF6FF752B408D892D0543EA1543CD890A
:105160002D0543EA154383808483CD888587028497
:1051700070BD70B5002200230024058C4EF6FF762A
:1051800035400584038C8488828B48F6FF752A405D
:105190004FF6FF452A400D882D0642EA15424DF68E
:1051A000FF752B400D892D0743EA15434D881FE0FD
:1051B000002C01400004004000080040000C0040AA
:1051C000001000400014004000340140004C014039
:1051D000005001400054014000180040001C0040F5
:1051E00000200040004001400044014000480140D0
:1051F0002D0743EA1543F94DA84202D0F84DA842C5
:1052000006D14BF6FF752C408D89AD0544EA154457
:1052100084808283CD88A0F84050038470BD828B47
:105220004FF2FF331A408283828B0B0642EA13420D
:1052300082837047F0B50C461546002200210026F7
:10524000078C4EF6FF7C07EA0C070784828B018CE3
:1052500027073E0C40F6FF473A402F0642EA174226
:105260001F0742EA1742DD4FB8420ED0DC4FB8426A
:105270000BD0B0F1804F08D0DA4FB84205D0DA4FEA
:10528000B84202D0D94FB84206D14DF6FF77394027
:1052900046F48057394305E047F6FF57394044F458
:1052A0008057394382830184F0BD828B4FF6F373BC
:1052B0001A408283828B0A4382837047F0B50C4682
:1052C0001546002200210026078C4FF6FF6C07EAE6
:1052D0000C070784828B018C27063E0C4FF60C7757
:1052E0003A401F0545EA17473A43BC4FB8420ED033
:1052F000BB4FB8420BD0B0F1804F08D0B94FB84285
:1053000005D0B94FB84202D0B84FB84206D14FF6D7
:10531000FF57394046F48077394305E04FF2FF5795
:10532000394044F48077394382830184F0BD028B95
:105330004FF2FF331A400283028B0B0642EA1342FC
:1053400002837047F0B50C46154600220021002666
:10535000078C4FF6EF7C07EA0C070784028B018C61
:1053600027053E0C40F6FF473A401F0742EA174226
:105370002F0642EA1742994FB8420ED0984FB842D2
:105380000BD0B0F1804F08D0964FB84205D0964F61
:10539000B84202D0954FB84206D14FF6DF77394078
:1053A00046F01007394305E04FF65F77394044F087
:1053B0001007394302830184F0BD028B4FF6F3736B
:1053C0001A400283028B0A4302837047F0B50C46F1
:1053D000154600220021068C4FF6FE773E400684DB
:1053E000028B018C4FF60C7632401E0545EA1646BC
:1053F00032437A4EB0420ED0794EB0420BD0B0F16B
:10540000804F08D0774EB04205D0774EB04202D0E0
:10541000764EB04206D14FF6FD76314044F001069B
:10542000314305E04FF6F576314044F00106314353
:1054300002830184F0BD70B505460C46674885427D
:105440000ED0674885420BD0B5F1804F08D0654833
:10545000854205D06448854202D06448854200D127
:1054600000E000BF208850B92389A28861882846BF
:10547000FFF7ACFFE1882846FFF79FFF25E0208873
:1054800004280AD12389A28861882846FFF75AFF99
:10549000E1882846FFF74BFF17E0208808280AD14B
:1054A0002389A28861882846FFF708FFE1882846FB
:1054B000FFF7FBFE09E02389A28861882846FFF7F1
:1054C000B9FEE1882846FFF7AAFE70BD2DE9F0413C
:1054D00005460C4600260127608808B9022600E030
:1054E0000026A088012801D1022700E0012720889A
:1054F000A0B92389A28861882846FFF767FFE18861
:105500002846FFF75AFF23893A4631462846FFF7D7
:1055100019FFE1882846FFF70AFF13E02389A288D4
:1055200061882846FFF70EFFE1882846FFF7FFFE57
:1055300023893A4631462846FFF748FFE188284646
:10554000FFF73BFFBDE8F0810A884B881A438B8840
:105550001A43CB881A430B891A434B891A438B8908
:105560001A43A0F8442070474FF6FF718180002154
:105570000180C1804180017270470021018041801B
:105580008180C180018141818181C1817047002179
:1055900001804180012181800021C180018170470B
:1055A0000021018041808180C18001814181818110
:1055B000704721B1028842F00102028004E00288B3
:1055C0004FF6FE731A400280704789B1B0F844204C
:1055D00042F40042A0F8442010E00000002C0140FA
:1055E000003401400004004000080040000C00406E
:1055F000B0F84420C2F30E02A0F84420704710B562
:105600001AB183890B43838104E08389CC43A4B21C
:105610002340838110BD8182704741EA0203A0F8D4
:105620004830704710B51AB183890B43838104E079
:105630008389CC43A4B22340838110BD01894FF6F6
:10564000F8721140018170470A46002101894FF626
:105650008F73194011430181704730B504460D46E0
:1056600029462046FFF7F0FF208940F007002081FF
:1056700030BD2DE9F04104460D4616461F46602D0B
:1056800006D13B46012231462046FFF75BFE05E08E
:105690003B46012231462046FFF798FE2946204628
:1056A000FFF7D2FF208940F007002081BDE8F0819C
:1056B00030B50C4600210189C9B21D0642EA1545E4
:1056C00025432943018130BD2DE9F04105460E46B1
:1056D00017469846002443463A4631462846FFF787
:1056E000E7FF2C894FF6F8710C4044F007044FF6A1
:1056F0008F710C4044F070042C81BDE8F081F0B54E
:1057000004460D4616461F463B463246294620466D
:10571000FFF7CEFF208940F480402081F0BD018555
:10572000828270470A46002101884FF68F73194024
:10573000114301807047F0B50C4615461E46002106
:10574000002200230189028B038C4FF6F877394041
:1057500021434FF6FC473A4040F201173A434FF6D7
:10576000DD773B40370545EA17473B43018102831C
:105770000384F0BD0A460021018B4FF68F73194058
:105780001143018370470A460021018B48F6FF73DD
:105790001940130641EA1341018370470A4600216C
:1057A000818B4FF68F7319401143818370470A46EE
:1057B0000021818B48F6FF731940130641EA13411B
:1057C0008183704721B1028842F08002028004E0A8
:1057D00002884FF67F731A400280704721B1828899
:1057E00042F00402828004E082884FF6FB731A4084
:1057F0008280704721B1828842F00802828004E0F2
:1058000082884FF6F7731A408280704721B18288F0
:1058100042F00102828004E082884FF6FE731A4053
:10582000828070470A460021018B4FF6F7731940BA
:105830001143018370470A460021018B4FF2FF7329
:105840001940130641EA1341018370470A460021BB
:10585000818B4FF6F77319401143818370470A46D5
:105860000021818B4FF2FF731940130641EA134167
:10587000818370470A460021018B4FF6FB73194064
:105880001143018370470A460021018B4FF6FF3315
:105890001940130641EA1341018370470A4600216B
:1058A000818B4FF6FB7319401143818370470A4681
:1058B0000021818B4FF6FF331940130641EA134153
:1058C000818370470A460021018B4FF67F73194090
:1058D0001143018370470A460021018BC1F30E0179
:1058E000130641EA1341018370470A460021818B68
:1058F0004FF67F7319401143818370470A46002198
:10590000818BC1F30E01130641EA13418183704775
:105910000A460021018C4FF6FD73194011430184A2
:1059200070470A460021018C4FF6F7731940114366
:10593000018470470A460021018C4FF6DF7319403D
:10594000130541EA1341018470470A460021018C86
:105950004FF67F731940130541EA134101847047E4
:105960000A460021018C4FF6FF531940130641EA05
:105970001341018470470A460021018C4FF2FF73E6
:105980001940130641EA1341018470470A46002179
:10599000018C4DF6FF731940130741EA134101844E
:1059A000704730B5002301248C40A3B2048CDD4342
:1059B000ADB22C400484048C02FA01F5ADB22C4344
:1059C000048430BD30B5002304248C40A3B2048C81
:1059D000DD43ADB22C400484048C02FA01F5ADB273
:1059E0002C43048430BD70B50346002000241846C3
:1059F000183001258D40ACB21D8CE643B6B235405F
:105A00001D8409B1082909D100EB6100056825F062
:105A1000700505600568154305600CE00D1FADB20B
:105A200000EB6500056825F4E0450560056816068D
:105A300045EA1645056070BD21B1028842F00202B8
:105A4000028004E002884FF6FD731A40028070471E
:105A500021B1028842F00402028004E002884FF67D
:105A6000FB731A400280704721B1828842F08002A5
:105A7000828004E082884FF67F731A4082807047EC
:105A800002884FF6F7731A40028002880A430280A8
:105A9000704782884FF68F731A40828082880A434B
:105AA0008280704702894FF6F8731A40028102899A
:105AB0000A430281704702894FF67F731A400281C0
:105AC00002890A430281704781847047818570474B
:105AD000818670470187704781877047A0F8401022
